:100000000C9446040C9458040C9458040C9401105D
:100010000C942B340C9458040C9458040C945804ED
:100020000C9458040C9458040C9458040C94B12A61
:100030000C9458040C9458040C9458040C945804D0
:100040000C94C52C0C9458040C944B260C940D263F
:100050000C9458040C9458040C9458040C945804B0
:100060000C9458040C9458047607790F790F800784
:100070008D079A07A707790FAB07790FB907790F93
:10008000C307CD07FE07790F790F790FD707E4076C
:10009000F107420E530E720E530E760E890E7C0E31
:1000A000820E9E0EA40EB30ECA0EEE0EF80E040FB4
:1000B0000E0FF620F920FE200121042107210A213C
:1000C0000D2110211321162125211921252125215A
:1000D00025212521252125211F211C2122216C21BB
:1000E0006F217221752178217B217E218121C528F4
:1000F000CB28CE28D128D628DE28E82866296629EC
:100100006629F028F328FC2805296629662966292E
:100110006629662966290D29172923292B292E29C5
:10012000372940294629662966294F295829084A2E
:10013000D73B3BCE016E84BCBFFDC12F3D6C7431FB
:100140009ABD56833DDA3D00C77F11BED9E4BB4C52
:100150003E916BAAAABE000000803F05A84CCDB21C
:10016000D44EB93836A9020C50B9918688083CA6FD
:10017000AAAA2ABE000000803F003E0D0A007C00B3
:10018000300031007C002C50696E3A002C52583AF5
:10019000002C4275663A002C002C57506F733A00C1
:1001A0002C002C4D506F733A003C446F6F72003C32
:1001B000436865636B003C416C61726D003C486F45
:1001C0006D65003C486F6C64003C52756E003C49A4
:1001D000646C65005D0D0A005B312E30632E323099
:1001E0003135313130393A000D0A003D00244E00DE
:1001F0005D0D0A00205300204600205400204D379A
:1002000000204D3800204D3900204D3500204D3460
:1002100000204D3300204D3200204D3100204D3064
:100220000020473934002047393300204739310056
:10023000204739300020473230002047323100203B
:1002400047313900204731380020473137002047F7
:10025000004733382E00473830004733004732001C
:100260004731004730005B005D0D0A005B544C4F86
:100270003A005D0D0A002C005B4739323A005D0DF3
:100280000A002C003A003330003238005B47005D32
:100290000D0A003A002C005B5052423A00290D0A28
:1002A00000206D61782074726176656C2C206D6D14
:1002B0000020616363656C2C206D6D2F7365635E38
:1002C0003200206D617820726174652C206D6D2F75
:1002D0006D696E002C20737465702F6D6D007A004F
:1002E000790078002028003D002400202872706DDD
:1002F000206D696E290D0A00202872706D206D61D5
:1003000078290D0A2433313D002028686F6D696E0D
:10031000672070756C6C2D6F66662C206D6D290DD5
:100320000A2433303D002028686F6D696E672064B1
:1003300065626F756E63652C206D736563290D0AA8
:100340002432373D002028686F6D696E6720736521
:10035000656B2C206D6D2F6D696E290D0A24323668
:100360003D002028686F6D696E6720666565642CA6
:10037000206D6D2F6D696E290D0A2432353D0029DF
:100380000D0A2432343D002028686F6D696E6720A5
:1003900064697220696E76657274206D61736B3A60
:1003A000002028686F6D696E67206379636C652C27
:1003B00020626F6F6C290D0A2432333D00202868BB
:1003C000617264206C696D6974732C20626F6F6C4C
:1003D000290D0A2432323D002028736F6674206C88
:1003E000696D6974732C20626F6F6C290D0A243259
:1003F000313D0020287265706F727420696E6368E9
:1004000065732C20626F6F6C290D0A2432303D0019
:10041000202861726320746F6C6572616E63652C55
:10042000206D6D290D0A2431333D0020286A756E38
:100430006374696F6E20646576696174696F6E2C90
:10044000206D6D290D0A2431323D00290D0A243119
:10045000313D002028737461747573207265706F6C
:100460007274206D61736B3A00202870726F626540
:100470002070696E20696E766572742C20626F6FD1
:100480006C290D0A2431303D0020286C696D697497
:100490002070696E7320696E766572742C20626FAD
:1004A0006F6C290D0A24363D002028737465702076
:1004B000656E61626C6520696E766572742C20626F
:1004C0006F6F6C290D0A24353D00290D0A24343D37
:1004D00000202864697220706F727420696E7665DE
:1004E0007274206D61736B3A00290D0A24333D004C
:1004F00020287374657020706F727420696E766541
:100500007274206D61736B3A0020287374657020DB
:1005100069646C652064656C61792C206D7365631A
:10052000290D0A24323D00202873746570207075EF
:100530006C73652C2075736563290D0A24313D00A9
:1005400024303D0024242028766965772047726294
:100550006C2073657474696E6773290D0A242320F7
:100560002876696577202320706172616D657465F6
:100570007273290D0A2447202876696577207061F7
:1005800072736572207374617465290D0A244920A1
:100590002876696577206275696C6420696E666F7C
:1005A000290D0A244E2028766965772073746172BC
:1005B00074757020626C6F636B73290D0A24783D2B
:1005C00076616C7565202873617665204772626C70
:1005D0002073657474696E67290D0A244E783D6C2A
:1005E000696E652028736176652073746172747515
:1005F0007020626C6F636B290D0A244320286368A6
:1006000065636B2067636F6465206D6F6465290D9A
:100610000A245820286B696C6C20616C61726D2013
:100620006C6F636B290D0A2448202872756E206850
:100630006F6D696E67206379636C65290D0A7E2092
:10064000286379636C65207374617274290D0A21C3
:1006500020286665656420686F6C64290D0A3F2058
:100660002863757272656E74207374617475732972
:100670000D0A6374726C2D7820287265736574207E
:100680004772626C290D0A000D0A4772626C2031B4
:100690002E3063205B27242720666F722068656CEC
:1006A000705D0D0A005D0D0A00526573746F72690A
:1006B0006E672064656661756C74730050676D20A9
:1006C000456E6400436865636B20446F6F7200443D
:1006D000697361626C656400456E61626C6564009B
:1006E00043617574696F6E3A20556E6C6F636B650C
:1006F0006400272448277C2724582720746F2075FE
:100700006E6C6F636B00526573657420746F206349
:100710006F6E74696E7565005B000D0A00486F6D41
:10072000696E67206661696C0050726F6265206651
:1007300061696C0041626F727420647572696E67E2
:10074000206379636C6500536F6674206C696D6912
:10075000740048617264206C696D697400414C4199
:10076000524D3A20000D0A00496E76616C69642092
:1007700067636F64652049443A00556E6465666935
:100780006E65642066656564207261746500556EEF
:10079000737570706F7274656420636F6D6D616ED8
:1007A00064004D6F64616C2067726F7570207669AC
:1007B0006F6C6174696F6E00436865636B20446F92
:1007C0006F72004C696E65206F766572666C6F772C
:1007D00000486F6D696E67206E6F7420656E616290
:1007E0006C656400416C61726D206C6F636B004ED0
:1007F0006F742069646C6500454550524F4D2072FE
:10080000656164206661696C2E205573696E67208E
:1008100064656661756C74730056616C7565203C27
:10082000203320757365630053657474696E6720A7
:1008300064697361626C65640056616C7565203C27
:10084000203000496E76616C696420737461746550
:100850006D656E7400426164206E756D6265722014
:10086000666F726D617400457870656374656420AD
:10087000636F6D6D616E64206C6574746572006584
:1008800072726F723A20006F6B0D0A0011241FBE46
:10089000CFEFD8E0DEBFCDBF26E0A0E0B1E001C0E1
:1008A0001D92A33EB207E1F70E9457120C94BA3A88
:1008B0000C9400004398449808953B9A3C9A0C94F9
:1008C0005A049091AF0591110AC0823011F4439AF5
:1008D0000895813011F4449A08950C945A040895AF
:1008E000CF93DF931F92CDB7DEB79091B0059230D2
:1008F00049F089830E94CF2089810F90DF91CF91A9
:100900000C9461040F90DF91CF910895F999FECF77
:1009100092BD81BD81E08FBB80B50895F894F999AF
:10092000FECF92BD81BD81E08FBB40B54627842FAD
:10093000992787FD9095262F30E082239323892BDA
:1009400039F06F3F19F060BD84E006C084E104C057
:10095000442321F060BD84E28FBBF99A7894089516
:100960009F92AF92BF92CF92DF92EF92FF920F933E
:100970001F93CF93DF938C017A016B01C40ED51EB8
:10098000EB01912C5C01A61AB70ACE018A0D9B1DC2
:10099000CC15DD0591F0911009C0692D772767FD11
:1009A0007095272F221F2227221F01C021E0699165
:1009B000922E960E0E948E04E8CF692DC8018E0DEE
:1009C0009F1DDF91CF911F910F91FF90EF90DF90CE
:1009D000CF90BF90AF909F900C948E049F92AF9257
:1009E000BF92CF92DF92EF92FF920F931F93CF931C
:1009F000DF938B017A016C01C40ED51EEC01912CA2
:100A00005B01A81AB90AC5018C0F9D1FCC15DD0525
:100A100091F00E948604911009C0292D332727FDEB
:100A20003095232F221F2227221F01C021E0922E62
:100A3000980E8993E8CFC8018E0D9F1D0E948604F1
:100A400021E030E0981611F020E030E0C901DF919C
:100A5000CF911F910F91FF90EF90DF90CF90BF90BB
:100A6000AF909F9008958FE3E7E3F5E0DF011D92DB
:100A70008A95E9F76AE575E080E00E9425288111F2
:100A800003C087E00C94E020089563EB75E08EE4EA
:100A900095E00C9427362F923F924F925F926F927F
:100AA0007F928F929F92AF92BF92CF92DF92EF92FE
:100AB000FF920F931F93CF93DF93CDB7DEB7AB9722
:100AC0000FB6F894DEBF0FBECDBF9F8F8E8F89E328
:100AD000E6E7F5E0DF011D928A95E9F78AE0E7E3B2
:100AE000F5E0A7E7B5E001900D928A95E1F71D8E3C
:100AF000212C312CA12CB12C19A2512C18A2662426
:100B00006394712C08E0402E9924939485E0882EFC
:100B10008D8DEE8DFF8DE80FF11D0081002309F40E
:100B200090C29FEB900F9A3110F00C946B0F8F5F77
:100B30008D8FAE01475E5F4FBE01635E7F4F8E8D2E
:100B40009F8D0E94E216882311F40C946D0FC98CBE
:100B5000DA8CEB8CFC8CC701B6010E944D3A0E94E6
:100B6000B537162F70E080E090E00E94E3379B01DC
:100B7000AC01C701B6010E94673620E030E048ECC6
:100B800052E40E947F390E94E2390E94B53707344F
:100B900021F00D3409F450C197C1183209F432C163
:100BA000E8F4143160F4113108F0D7C0143009F4BE
:100BB0005AC008F48EC01A30D9F10C94790F1C3148
:100BC000B9F128F4163108F4F7C00C94790F1E31EE
:100BD00079F1163209F47DC00C94790F1D3309F4B4
:100BE0000BC1A8F4153309F461C040F41B3209F4B9
:100BF000ECC0113309F4E9C00C94790F1C3310F0E8
:100C00000C94790F165310937D0589E000C11C35B3
:100C100040F41A3508F0B0C0103509F49BC00C94AC
:100C2000790F1C3529F01F3508F4BDC00C94790FDD
:100C30006115710531F4B8A1B1110C946F0FE1E0A9
:100C4000E8A31C3199F038F4143069F01A3009F037
:100C5000DBC082E02CC0153349F11C3559F11E313F
:100C600009F0D2C013C090927605CEC0611571050F
:100C700049F06A30710511F00C94790F24E020934B
:100C8000760509C0F3E0F093760505C0611571059E
:100C900021F48092760580E0BFC06A30710511F0C2
:100CA0000C94790F36E030937605F5CF87E080938A
:100CB0007605AAC06115710549F06A30710511F019
:100CC0000C94790F99E090937605E5CF40927605E4
:100CD000E2CFA8A1A1110C946F0FB2E0B8A312301B
:100CE00089F028F4112359F0113081F08FC01632A9
:100CF00081F0103579F1133009F088C007C01092E7
:100D0000770584C0E8A1E093770580C0109377054C
:100D10007DC06E317105B1F048F46431710511F098
:100D20000C94790FF4E0F093770512C068327105E6
:100D300061F06233710511F00C94790F37E0309354
:100D4000770506C08092770503C026E020937705DB
:100D500081E062C04092770559C0123129F0133109
:100D600039F010927B0502C090927B0582E04FC063
:100D700082E080937B054BC06115710549F41A35FB
:100D800019F410927A0502C090927A0583E044C06B
:100D90006A30710511F00C94790F1A3511F40C9426
:100DA000790F84E039C01D3519F49092780502C09E
:100DB0001092780585E02BC0143119F490927905D2
:100DC00002C01092790586E022C088A181110C949E
:100DD0006F0F113331F410927C0588E093E098A3F3
:100DE0001BC06A30710511F00C94790F90927C054C
:100DF00088E0A3E0A8A310C0672B11F00C94790F32
:100E00008AE00AC087E003C080E001C081E0672B70
:100E100019F087E10C948C0FF30102C0EE0FFF1F55
:100E20008A95E2F7CF019F012A213B21232B09F468
:100E300048C085E10C948C0F672B59F7163018F4D5
:100E4000133058F017C0173010F40C94790F1A3083
:100E500000F11E3159F00C94790F123039F01E3127
:100E600029F0111125C090927E0522C082E0809366
:100E70007E051EC0143029F0153039F0909280059F
:100E800006C082E08093800502C0109280058CE04D
:100E900010C0183029F0193039F090927F0506C043
:100EA00082E080937F0502C010927F058DE001C033
:100EB0008BE0930102C0220F331F8A95E2F7C9012C
:100EC000B3CFA82AB92A24CE802F992787FD9095E1
:100ED000A92FB92FFC01E654F109E531F10510F015
:100EE0000C94790FEC5CFF4F0C949A3AC0928105F8
:100EF000D0928205E0928305F092840580E07FC065
:100F0000C0928505D0928605E0928705F09288050B
:100F100039A1316039A381E072C0C0928905D092B5
:100F20008A05E0928B05F0928C0589A1826089A3E5
:100F300082E065C0C0928D05D0928E05E0928F054B
:100F4000F092900599A1946099A383E058C0109302
:100F5000910584E054C0C701B6010E94B037609388
:100F6000920570939305809394059093950585E081
:100F700046C0C0929605D0929705E0929805F092EF
:100F8000990586E03CC0C0929A05D0929B05E092FC
:100F90009C05F0929D0587E032C0C0929E05D092DC
:100FA0009F05E092A005F092A10588E028C0C092BC
:100FB000A305D092A405E092A505F092A605A52D63
:100FC000A1605A2E8AE01BC0C092A705D092A80546
:100FD000E092A905F092AA05B52DB2605B2E8BE0D8
:100FE0000EC0C092AB05D092AC05E092AD05F09278
:100FF000AE05E52DE4605E2E8CE001C089E0830142
:10100000082E02C0000F111F0A94E2F79801222156
:101010003321232B09F065C721E633E002C0359563
:1010200027958A95E2F720FF09C020E030E0A9016A
:10103000C701B6010E94413787FD55C7202A312AD2
:1010400067CD552029F038A1311102C082E088A374
:1010500025FE0EC08091920590919305A091940574
:10106000B091950580389649A849B1050CF03DC767
:1010700080917805813031F4F8A1F230A1F520FE9D
:101080003EC731C08091380581112DC020FE1BC0A4
:1010900080917905813039F523E333E34BEC51E45A
:1010A00060918105709182058091830590918405FE
:1010B0000E947F3960938105709382058093830538
:1010C0009093840510C08091450590914605A091AC
:1010D0004705B09148058093810590938205A093C0
:1010E0008305B093840530FC10C080914105909138
:1010F0004205A0914305B091440580939E059093CD
:101100009F05A093A005B093A1058091760581303D
:1011100031F426FC02C08CE1FFC6E89426F88091E9
:101120007B05882341F0813061F019A682E088A711
:1011300091E09FA30BC022E029A731E038A71FA2AE
:1011400005C0A1E0A9A718A6B2E0BFA380917905C8
:10115000813021F0E8A1E33091F52AC0B3EAEB2E0B
:10116000B5E0FB2E00E010E0C52CD12CC601002E0E
:1011700002C0959587950A94E2F780FF10C023E39B
:1011800033E34BEC51E4D7016D917D918D919C91AE
:101190000E947F39F70160837183828393830F5F9D
:1011A0001F4FF4E0EF0EF11C03301105F9F6D2CF1A
:1011B00080917C05813019F424E0521298C68CE0AD
:1011C000EAE5F5E0DE011D9601900D928A95E1F7C2
:1011D000B1FC09C0309176053E8F3230B9F038301D
:1011E00009F4B0C015C180917D05873010F08DE104
:1011F00093C690913D05981769F3BE01635F7F4FD9
:101200000E942528882309F484C6E4CF511002C027
:101210008AE182C6C10180759927892B09F47BCFA9
:101220006091960570919705809198059091990528
:101230000E944D3A0E94B5376730C8F680919105FB
:10124000843129F0823009F054C627FC52C68FEA57
:101250002822662319F061506E8F03C090917D059E
:101260009E8FBE016F5F7F4F8E8D0E942528882341
:1012700009F44FC640909105609072057090730517
:101280008090740590907505DE0111967D01F3EA5A
:10129000CF2EF5E0DF2EAEE4AA2EA5E0BA2E00E0B8
:1012A00010E0E52DF0E0FEA3EDA38DA19EA1002EA0
:1012B00002C0959587950A94E2F780FF33C0F4E168
:1012C0004F1226C0D50158962D913D914D915C91BC
:1012D0005B976D917D918D919C910E946736F6018F
:1012E00020813181428153810E946736D7016D93FD
:1012F0007D938D939C9313970230A1F4A4019301E5
:101300000E946736F70160837183828393830AC0EA
:10131000F60180819181A281B381F701808391835D
:10132000A283B3830F5F1F4FF4E0EF0EF11C24E0A4
:10133000C20ED11C34E0A30EB11C0330110509F01C
:10134000B4CF33C1552009F463CF6090720570901B
:101350007305809074059090750503EA15E0EEE43E
:10136000CE2EE5E0DE2E5E018DE0A80EB11CE12C54
:10137000F12CA52DB0E0BF8FAE8F8E8D9F8D0E2CE2
:1013800002C0959587950A94E2F780FF26C0F50183
:101390002081318142815381D6016D917D918D9162
:1013A0009C910E946736F8012081318142815381EE
:1013B0000E946736D8016D937D938D939C9313970C
:1013C000B2E0EB1214C0A40193010E946736F80149
:1013D00060837183828393830AC0F601808D918D2F
:1013E000A28DB38DF80180839183A283B383FFEF35
:1013F000EF1AFF0A0C5F1F4F24E0C20ED11C34E02D
:10140000A30EB11C83E0E816F10409F0B6CFCCC0FE
:1014100098A1933079F4AE8DA53009F48BC0A73034
:1014200009F4BDC0A33009F0BFC0BE016F5F7F4F9C
:1014300086E084C0552079F340907A05809072054B
:1014400090907305A0907405B09075057EE4C72E4A
:1014500075E0D72E03EA15E03E01BDE06B0E711C6E
:10146000E12CF12CE52DF0E0FEA3EDA38DA19EA1D2
:101470000E2C02C0959587950A94E2F780FD0BC06B
:10148000F60180819181A281B381F80180839183EB
:10149000A283B3833EC0FE8DF730D9F1411028C03E
:1014A000D60158962D913D914D915C915B97F3013A
:1014B00060817181828193810E946836D8012D916B
:1014C0003D914D915C910E946836F8016083718373
:1014D00082839383F2E0EF121CC0A50194010E9465
:1014E0006836D8016D937D938D939C93139711C0AB
:1014F000F6012081318142815381D8016D917D9126
:101500008D919C910E946836F8016083718382837B
:101510009383FFEFEF1AFF0A24E0C20ED11C0C5F89
:101520001F4F34E0630E711C83E0E816F10409F0EC
:101530009DCF71CFBE016F5F7F4F87E00E9425284E
:10154000882309F4E6C4511003C01E8E18A22DC0D2
:1015500020E030E080E090E0452D50E0BA01082E18
:1015600002C0759567950A94E2F760FD11C0F90114
:10157000E95CFA4FC788D08CE18CF28CE1E0F0E0B6
:10158000EC0FFD1FE20FF31FC082D182E282F382D3
:1015900001962C5F3F4F8330910501F705C0809184
:1015A0007705823008F0A7C41E8E10917705183099
:1015B00041F4552009F4B3C198A1913009F09DC4BC
:1015C0008BC2A8A1A23009F0AAC11123D9F020E052
:1015D00030E0A901609181057091820580918305B9
:1015E000909184050E944137882309F488C41430FF
:1015F00028F4123058F4113029F06EC2183008F473
:101600004DC16AC2511068C218A28CC1552009F49C
:10161000FFCDFFA1EF2FF0E0FEA3EDA338A5232F10
:1016200030E03BA72AA781E090E03C0108A402C07B
:10163000660C771C0A94E2F70FA002C0880F991F6E
:101640000A94E2F7682A792A852D90E0862197216D
:10165000892B09F456C4CF01880F991F880F991F51
:10166000FC01EA58FA4FDC01A95CBA4F57962D915C
:101670003D914D915C915A9765A576A587A590A956
:101680000E9467366B017C018AA59BA5880F991F74
:10169000880F991FFC01EA58FA4FDC01A95CBA4F88
:1016A00057962D913D914D915C915A9765A576A5E0
:1016B00087A590A90E9467364B015C0127FE40C0B8
:1016C000E89427F82091A3053091A4054091A50541
:1016D0005091A60560914E0570914F05809150057F
:1016E000909151050E944137811120C12091A70599
:1016F0003091A8054091A9055091AA056091520525
:101700007091530580915405909155050E94413781
:1017100081110CC12091AB053091AC054091AD0514
:101720005091AE056091560570915705809158050E
:10173000909159050E9441378111F8C081E2ECC3B4
:10174000F9A14F2E512C64207520672809F4DBC3C2
:1017500021EF222280917905813009F45AC00AA52F
:101760001BA5000F111F000F111F06581A4FD8019B
:101770001B962D913D914D915C911E97C501B40131
:101780000E9467362B013C01ADA0BEA0AA0CBB1C79
:10179000AA0CBB1CF501E658FA4F5F01238534857E
:1017A00045855685C701B6010E946736A30192019F
:1017B0000E94D0176B017C01D8011B962D913D91A1
:1017C0004D915C911E97F50163857485858596859D
:1017D0000E94D0174B015C0160939A0570939B05A2
:1017E00080939C0590939D059B01AC01C701B601B8
:1017F0000E9467366B017C01E894F7F82AE037ED28
:1018000043EA5BE3C701B6010E94443918164CF164
:1018100063C185E8682E85E0782E00E010E0C20103
:10182000002E02C0959587950A94E2F780FF10C0BC
:1018300023E333E34BEC51E4D3016D917D918D9122
:101840009C910E947F39F30160837183828393832B
:101850000F5F1F4FF4E06F0E711C03301105F9F696
:101860007ECF20E030E040E05FE3C701B6010E9498
:10187000443918160CF462CF2FE632E143E85AE3FC
:10188000C501B4010E947F399B01AC01C701B601BB
:101890000E94443918160CF451CF1EC1552009F48A
:1018A000B7CC2091A3053091A4054091A505509196
:1018B000A60560914E0570914F058091500590915D
:1018C00051050E944137811107C12091A705309130
:1018D000A8054091A9055091AA0560915205709103
:1018E000530580915405909155050E94413781110F
:1018F000F3C02091AB053091AC054091AD055091FE
:10190000AE056091560570915705809158059091EC
:1019100059050E944137882309F410CFDDC028A162
:101920002111DAC0C1018E7D9C7FD9C080917905DB
:101930008130B1F423E333E34BEC51E460919A0539
:1019400070919B0580919C0590919D050E947F3927
:1019500060939A0570939B0580939C0590939D05D9
:1019600040909A0550909B0560909C0570909D0555
:1019700020E030E040E850E4C301B2010E947F392A
:10198000A30192010E947F392B013C01A70196011E
:10199000C701B6010E947F399B01AC01C301B201AE
:1019A0000E9467362B013C01A5019401C501B401D9
:1019B0000E947F399B01AC01C301B2010E946736CE
:1019C0002B013C0120E030E0A9010E94413787FD56
:1019D000A2C2C301B2010E940C3A2B013C01A50135
:1019E0009401C701B6010E94D0179B01AC01C3014D
:1019F000B20190580E9448372B013C018091770535
:101A0000833021F477FA709477F8709480919A0576
:101A100090919B05A0919C05B0919D0589A39AA3E7
:101A2000ABA3BCA320E030E0A901BC01CD010E9422
:101A3000413787FF11C077FA709477F8709489A1C5
:101A40009AA1ABA1BCA1B05880939A0590939B0535
:101A5000A0939C05B0939D050DA11EA1000F111F21
:101A6000000F111F06581A4FA3019201C501B401BE
:101A70000E947F399B01AC01C701B6010E94673605
:101A800020E030E040E05FE30E947F39D8011B9600
:101A90006D937D938D939C931E970AA51BA5000FB4
:101AA000111F000F111F06581A4FA3019201C70101
:101AB000B6010E947F399B01AC01C501B4010E94AF
:101AC000683620E030E040E05FE30E947F39F801B3
:101AD0006387748785879687C1018E7D907E892B69
:101AE00009F013C28091920590919305A0919405FD
:101AF000B091950580934A0590934B05A0934C05B2
:101B0000B0934D05809178058093380580918105CB
:101B100090918205A0918305B0918405809345053D
:101B200090934605A0934705B0934805C0909E0545
:101B3000D0909F05E090A005F090A105A701960127
:101B40006091410570914205809143059091440553
:101B50000E9441378823C1F080914005882321F0FD
:101B6000B701A6010E94422A80919E0590919F058F
:101B7000A091A005B091A1058093410590934205E5
:101B8000A0934305B09344058091A2058093490535
:101B90008091800590914005981771F04091410522
:101BA0005091420560914305709144050E94422A7C
:101BB000809180058093400580917F0590913F053D
:101BC000981731F00E94700480917F0580933F0543
:101BD00080917605813051F460919605709197055A
:101BE00080919805909199050E94D71580917B0569
:101BF00080933B05809179058093390538A1333076
:101C0000F9F480917C0580933C05813089F48091C2
:101C1000AB059091AC05A091AD05B091AE05809358
:101C2000720590937305A0937405B093750508C071
:101C3000109272051092730510927405109275053A
:101C400080917D0590913D05981759F080933D0551
:101C50008CE0FE013D96AAE5B5E001900D928A95D3
:101C6000E1F780917A0580933A058091760590E0BE
:101C7000FC013297E830F10508F04BC0E75BFF4FFD
:101C80000C949A3ABE016F5F7F4F8E8D0E94AD26F5
:101C900080913D059E8D89133CC08CE0FE013196FC
:101CA000AAE5B5E01AC0A8A1AA2349F020E040E0C7
:101CB00050E060E87FEB83EA95E00E94901220E01C
:101CC00040E050E060E87FEBCE0101960E94901268
:101CD0008CE0FE013196AEE4B5E001900D928A955C
:101CE000E1F717C06EE475E086E003C06EE475E0CE
:101CF00087E00E94AD260DC08CE0E3EAF5E0A6E6A1
:101D0000B5E0EBCF8CE0E6E6F5E0DF011D928A95C9
:101D1000E9F78091770580933705883009F498C0FA
:101D2000B8A1B23009F094C090E08830910508F075
:101D300086C0FC01EF5AFF4F0C949A3A20E040E035
:101D400050E060E87FEB0AC04091450550914605A0
:101D500060914705709148052091380583EA95E028
:101D60000E9490126CC0C0904505D0904605E0904E
:101D70004705F090480500919A0510919B05209128
:101D80009C0530919D0581E08F93E9A5EF93F8A51F
:101D9000FF9315C0C0904505D0904605E0904705DB
:101DA000F090480500919A0510919B0520919C05A3
:101DB00030919D051F9289A58F9398A59F938FA021
:101DC000A090380545E855E063EA75E08EE495E0BB
:101DD0000E94D8120F900F900F9031C0409145058E
:101DE000509146056091470570914805E12C0AC065
:101DF0004091450550914605609147057091480511
:101E0000EE24E39400E015C040914505509146054D
:101E10006091470570914805E12C0AC04091450545
:101E2000509146056091470570914805EE24E39472
:101E300001E02091380583EA95E00E940E168CE0BF
:101E4000E3EAF5E0AEE4B5E001900D928A95E1F7A2
:101E500080917E0580933E05882309F458C00E9436
:101E6000CF2090913E058091B005913041F48230B1
:101E700079F188E00E9441360E941D1F29C091E03F
:101E80009093370510923B0510923A051092380551
:101E900010923D051092400510923F058230A9F046
:101EA000BE01635F7F4F80E00E942528882389F16F
:101EB0008CE0FE013D96AAE5B5E001900D928A9571
:101EC000E1F70E949D290E945A0487E00E945B214D
:101ED00010923E051CC081E01FC082E01DC088E159
:101EE0001BC089E119C084E017C08BE115C085E2F1
:101EF00013C084E111C08EE10FC08FE10DC086E1F7
:101F00000BC080E209C083E207C084E205C080E024
:101F100003C087E001C082E2AB960FB6F894DEBF43
:101F20000FBECDBFDF91CF911F910F91FF90EF902A
:101F3000DF90CF90BF90AF909F908F907F906F90E9
:101F40005F904F903F902F900895EBE6F0E08081F6
:101F5000897E8083E8E6F0E080818E7F808308952B
:101F600084B1897E84B985B1866185B98091D306B3
:101F700083FF0BC080916B00866180936B00809122
:101F8000680081608093680008950C94A50FCF923B
:101F9000DF92FF920F931F93CF93DF931F92CDB7E2
:101FA000DEB793B196718091D30686FD02C086E1BB
:101FB00098279923D9F0C12CD12CF12C01E010E005
:101FC0008C2D99830E9493299981892339F0980156
:101FD0000C2C01C0220F0A94EAF7F22A8FEFC81ADC
:101FE000D80AE3E0CE16D10459F701C0F12C8F2DA9
:101FF0000F90DF91CF911F910F91FF90DF90CF90C5
:1020000008951F920F920FB60F9211242F933F93B2
:102010004F935F936F937F938F939F93AF93BF93F0
:10202000EF93FF938091B005813049F080910001DA
:10203000811105C00E94C41683E00E945436FF91AE
:10204000EF91BF91AF919F918F917F916F915F9130
:102050004F913F912F910F900FBE0F901F901895A9
:102060002F923F924F925F926F927F928F929F92A8
:10207000AF92BF92CF92DF92EF92FF920F931F9396
:10208000CF93DF93CDB7DEB767970FB6F894DEBF77
:102090000FBECDBF482E8091AF0581119DC192EB3F
:1020A000A92E96E0B92E9E01235F3F4F190100E053
:1020B00010E0C12CD12C7601642C712C802F0E9451
:1020C0007F29D1018D931D01C301002E02C095957A
:1020D00087950A94E2F780FF1AC020E030E040ECD8
:1020E0005FEBF50160817181828193810E947F396C
:1020F000688B572E4C01262F372FAC01C701B60134
:102100000E94443918161CF0C888D52C74010F5F42
:102110001F4FF4E0AF0EB11C0330110579F680902B
:10212000D9069090DA06A090DB06B090DC0624E099
:10213000288B5524539463EB75E0CE0101960E94E1
:1021400027362090D406312CFE01319683EB95E0A2
:102150009F8B8E8B80E090E000E010E0B701A6013D
:1021600070589301082E02C0359527950A94E2F71E
:1021700020FF28C00F5FAE89BF891D921D921D925E
:102180001C9213979101082E02C0359527950A9449
:10219000E2F720FF03C0552019F007C0552029F0B1
:1021A000C082D182E282F38204C040835183628381
:1021B00073832DE030E02C0F3D1F280F391FD9010C
:1021C0002C91122B019634962E893F892C5F3F4F1C
:1021D0003F8B2E8B8330910521F6602F70E080E0DD
:1021E00090E00E94E1370E940C3A9B01AC01C501CE
:1021F000B4010E947F39AB01BC011093CC054A8B1E
:102200005B8B6C8B7D8B0E94701C00E020E04A8908
:102210005B896C897D89CE0101960E9471190E94AB
:10222000262E0E946A2A5520E9F00E94C70FFE015F
:102230003D9620E030E090E06191462F412359F037
:10224000AC01022E02C0559547950A94E2F740FF73
:1022500002C0609516232F5F3F4F2330310561F791
:102260001093CC050E94262E80910101847399F071
:1022700080910101807329F00E94C4160E941D1FE5
:10228000ABC05110A4C00E94C70F8421A9F784E0FD
:102290000E944A3604C0812F8C7109F0C4CF0E947D
:1022A000172D0E9411198091DD069091DE060E9483
:1022B000C51731E05326C9F020E030E040EA50E491
:1022C0006091DF067091E0068091E1069091E20650
:1022D0000E947F396B017C018090D5069090D606D4
:1022E000A090D706B090D80610C0C090DF06D0905E
:1022F000E006E090E106F090E2068090D90690902A
:10230000DA06A090DB06B090DC0688898150888BC5
:10231000811111CF8091D406A82FB0E0B98BA88B82
:10232000C090DF06D090E006E090E106F090E20673
:102330001601270157FA509457F850940EE816E00A
:1023400083EB882E85E0982EA12CB12CC3010A2C9A
:1023500002C0959587950A94E2F780FF29C0888985
:1023600099890A2C02C0959587950A94E2F7F8019D
:1023700080FF0EC024A135A146A157A1C701B60117
:102380000E946836D8012D913D914D915C9106C017
:102390002081318142815381C201B1010E947F3984
:1023A0000E944F39D4016D937D938D939C93139725
:1023B000BFEFAB1ABB0AE4E08E0E911C0C5F1F4FFF
:1023C000F3E0AF16B10411F60E94701C05C08091B5
:1023D000010182FF5CCF50CF67960FB6F894DEBF45
:1023E0000FBECDBFDF91CF911F910F91FF90EF9066
:1023F000DF90CF90BF90AF909F908F907F906F9025
:102400005F904F903F902F900895CF92DF92EF9280
:10241000FF920F931F93CF93DF938C01C2EBD6E013
:10242000F801C190D190E190F1908F0120E030E06F
:10243000A901C701B6010E944439181654F0299128
:10244000399149915991C701B6010E94413787FFDF
:1024500021C08091B005883079F00E94C41685E0D3
:102460000E945436DF91CF911F910F91FF90EF9012
:10247000DF90CF900C941D1F88E00E9441360E948F
:102480001D1F8091AF05811109C08091B005811198
:10249000F6CFE3CFF6E0CE3BDF0711F6DF91CF9129
:1024A0001F910F91FF90EF90DF90CF9008950E94C1
:1024B000DB250E9472290E94432D0E9408348EE180
:1024C000EFEAF5E0DF011D928A95E9F781E080935C
:1024D000AF0578948091D30684FF03C081E0809398
:1024E000B0050E9498260E9433050E94A3290E94ED
:1024F0005D040E94B00F0E94FB1D0E9411190E94F2
:10250000172D0E94701C0E9445051092AF05109275
:102510000101109200011092B1050E945120E1CFFB
:10252000EF92FF920F931F93CF93DF9300D000D0D1
:10253000CDB7DEB77C01122F8091D30685FF0BC08B
:10254000C70149835A836B837C830E9405127C8177
:102550006B815A8149818091B0058230F1F04983C5
:102560005A836B837C830E941D1F8091AF0581116C
:1025700014C00E94691949815A816B817C8188232A
:1025800039F00E941F1E49815A816B817C81E7CFFF
:1025900000E0212FC7010E9471190F900F900F903A
:1025A0000F90DF91CF911F910F91FF90EF900895C1
:1025B0002F923F924F925F926F927F928F929F9253
:1025C000AF92BF92CF92DF92EF92FF920F931F9341
:1025D000CF93DF93CDB7DEB7E7970FB6F894DEBFA2
:1025E0000FBECDBF9C8B8B8B1B013A0109871A87CD
:1025F0002B873C87AF8A2D961FAD2D972E962FAD3A
:102600002E97298B2F963FAD2F973D8B84E0889E88
:10261000A00111245A834983AB89BC89A40FB51F3B
:10262000B98FA88F460D571D5B8F4A8FFA018080A6
:102630009180A280B3802D913D914D915C91C50117
:10264000B4010E9468366C8F7D8F8E8F9F8FF4E06F
:102650001F9F800111242B893C89200F311F39A332
:1026600028A3A301400F511F5BA34AA3DA014D9099
:102670005D906D907C90F901208131814281538180
:10268000C301B2010E9468366CA37DA38EA39FA3F1
:10269000A501940150582D873E874F87588BD30151
:1026A000C201B0588D839E83AF83B887E981FA81D8
:1026B000E20DF31D2C8D3D8D4E8D5F8D60817181FE
:1026C000828193810E9467362B013C01F101E00F6A
:1026D000F11F2CA13DA14EA15FA16081718182817A
:1026E00093810E9467364B015C01A30192016D85C5
:1026F0007E858F8598890E947F3969837A838B8351
:102700009C83A50194016D817E818F8198850E94B3
:102710007F399B01AC0169817A818B819C810E9408
:10272000683669837A838B839C83A50194016D85C8
:102730007E858F8598890E947F394B015C01A301BA
:1027400092016D817E818F8198850E947F399B01E6
:10275000AC01C501B4010E94673629813A814B81E1
:102760005C810E94DB362B013C019D89992399F005
:102770002DEB37E346E055EBC301B2010E9444392B
:1027800087FD1DC02BED3FE049EC50E4C301B201D1
:102790000E94673612C02DEB37E346E055E3C301D4
:1027A000B2010E944137181654F02BED3FE049EC7E
:1027B00050E4C301B2010E9468362B013C018090B5
:1027C000C7069090C806A090C906B090CA06298591
:1027D0003A854B855C85CA01B9010E946836A5011E
:1027E00094010E9467369B01AC01C501B4010E94AF
:1027F0007F390E940C3A4B015C0120E030E040E060
:102800005FE3C301B2010E947F3929853A854B8578
:102810005C850E947F399F77A50194010E9448370B
:102820000E941E380E94B5377E8B6D8BDB01AB2B6F
:1028300009F486C14B01A12CB12CBF89BB2361F0E7
:10284000C501B4010E94E1379B01AC01C701B6018B
:102850000E947F396B017C01C501B4010E94E13700
:102860004B015C019B01AC01C301B2010E944837DE
:1028700069877A878B879C87F989E4E0FE9FC0018E
:1028800011242B893C89280F391F3A8B298BF101A0
:10289000E80FF91FD9012D913D914D915C91608117
:1028A0007181828193810E946736A50194010E9403
:1028B00048376CAB7DAB8EAB9FAB29853A854B859A
:1028C0005C85CA01B9010E947F399B01AC0160E0BF
:1028D00070E080E090E40E9467364B015C012BEAD7
:1028E0003AEA4AE25EE369857A858B859C850E9497
:1028F0007F392B013C0120E030E040E850E4C50185
:10290000B4010E9468369B01AC01C301B2010E9470
:102910007F3968A779A78AA79BA720E030E040E02D
:102920005FE3C501B4010E947F396CA77DA78EA724
:102930009FA7198201E010E0ED89FE890E171F079D
:1029400009F4FEC0B981BC3008F04AC02CA53DA5F1
:102950004EA55FA56D817E818F8198850E947F390C
:102960004B015C0128A539A54AA55BA56D857E852F
:102970008F8598890E947F39A50194010E9468364D
:10298000B62EA72E982E892E2CA53DA54EA55FA567
:102990006D857E858F8598890E947F392B013C014A
:1029A00028A539A54AA55BA56D817E818F81988573
:1029B0000E947F399B01AC01C301B2010E946736BE
:1029C0006D877E878F87988BE981EF5FE9838B2DF9
:1029D0009A2DA92DB82D8D839E83AF83B8876EC0A5
:1029E000B80180E090E00E94E13729853A854B8567
:1029F0005C850E947F394B015C010E9445376D83E5
:102A00007E838F839887C501B4010E94023A4B01EF
:102A10005C01EA8DFB8D80819181A281B3819C0153
:102A2000AD01505829833A834B835C83AAA1BBA193
:102A30008D919D910D90BC91A02D88AB99ABAAABC7
:102A4000BBAB2D813E814F81588569817A818B8115
:102A50009C810E947F392B013C01A501940168A94A
:102A600079A98AA99BA90E947F399B01AC01C30166
:102A7000B2010E9468366D877E878F87988BA5018B
:102A8000940169817A818B819C810E947F394B01FD
:102A90005C012D813E814F81588568A979A98AA959
:102AA0009BA90E947F399B01AC01C501B4010E9422
:102AB00067366D837E838F83988719822D853E8547
:102AC0004F8558896C8D7D8D8E8D9F8D0E946836C7
:102AD000E88DF98D60837183828393832D813E819C
:102AE0004F8158856CA17DA18EA19FA10E9468365F
:102AF000A8A1B9A16D937D938D939C9313972CA955
:102B00003DA94EA95FA9E989FA8960817181828115
:102B100093810E946836A989BA896D937D938D93BC
:102B20009C9313972F89B701A6018B899C890E94DA
:102B300090128091AF05811121C00F5F1F4FFCCE15
:102B40002F89B701A601C101E7960FB6F894DEBF41
:102B50000FBECDBFDF91CF911F910F91FF90EF90EE
:102B6000DF90CF90BF90AF909F908F907F906F90AD
:102B70005F904F903F902F900C949012E7960FB675
:102B8000F894DEBF0FBECDBFDF91CF911F910F91A3
:102B9000FF90EF90DF90CF90BF90AF909F908F907D
:102BA0007F906F905F904F903F902F900895CF93BC
:102BB000DF9300D000D0CDB7DEB72091B005223032
:102BC00099F069837A838B839C830E94CF2040E0B5
:102BD00069817A818B819C810F900F900F900F906B
:102BE000DF91CF910C9494170F900F900F900F904E
:102BF000DF91CF9108950E94A50F84E00E943010CC
:102C000083E00E9430100E941D1F8091AF0581114A
:102C100004C00E9445050C94B00F0895CF92DF9236
:102C2000EF920F93CF93DF9300D000D01F92CDB7D8
:102C3000DEB76C018091B005823009F46DC02D8340
:102C400049835A836B837C830E94CF201092CB05EB
:102C5000802F0E94E91D0E94001E2D8149815A810A
:102C60006B817C81882351F080E10E9454360E9460
:102C70001D1F7C816B815A8149812D818091AF0517
:102C800081114AC0C6010E94901281E08093020126
:102C900082E00E9441360E941D1F8091AF05811184
:102CA0003BC08091B0058111F6CF80910201813047
:102CB00081F4EE2051F08CE0E3EBF5E0AFEBB5E012
:102CC00001900D928A95E1F707C080E10E94543689
:102CD00003C081E08093CB05109202010E941D1F6A
:102CE0008091AF05811118C00E94172D0E94111903
:102CF0000E94701C63EB75E0C6010E9427360F909E
:102D00000F900F900F900F90DF91CF910F91EF9058
:102D1000DF90CF900C940F230F900F900F900F9097
:102D20000F90DF91CF910F91EF90DF90CF900895AA
:102D30000F932091AF05211125C001E00E94711968
:102D40009091B2058823C1F0892F8D7F8860809390
:102D5000B2050E94892D0E94262E0E946A2A0E9496
:102D6000221E8091AF0581110DC08091B20583FDB7
:102D7000F6CF0F910C94CB2D977F9093B2050F91C6
:102D80000C94221E0F9108958091010184FD19C0B9
:102D900080E10E9441360E949D290E945A04909130
:102DA000B005892F8C7021F48091B2058C7049F0A8
:102DB000943011F480E201C088E00E9454360C94F3
:102DC000862A08956F927F928F929F92AF92BF92C0
:102DD000CF92DF92EF92FF920F931F93CF93DF93E7
:102DE0007C018B016A01FB018081F701E80FF11D75
:102DF0002081EF012D3229F42296218166246394EB
:102E000007C02B3211F0219602C022962181612C3D
:102E1000A12CB12C712C60E070E0CB01FE0130EDF3
:102E2000932E920E29E02915C8F0B39428E02B15B3
:102E300088F0A1107A94A5E0B0E09B01AC010E945B
:102E4000A03A660F771F881F991F690D711D811D9C
:102E5000911D0BC0A11009C0739407C02EEF9212F0
:102E600007C0A11005C0AA24A39421962081D6CF23
:102E7000BB2009F449C00E94E1374B015C0120E00E
:102E800030E0A9010E944137882361F18FEF781665
:102E90006CF42AE037ED43E25CE3C501B4010E9423
:102EA0007F394B015C0173947394F0CF78120BC09F
:102EB0002DEC3CEC4CEC5DE3C501B4010E947F3984
:102EC0004B015C010FC0772069F020E030E040E268
:102ED00051E4C501B4010E947F394B015C017A9431
:102EE00017149CF3662021F0B7FAB094B7F8B094A9
:102EF000F60180829182A282B382CE19DF09C1508D
:102F0000F801C08381E001C080E0DF91CF911F9183
:102F10000F91FF90EF90DF90CF90BF90AF909F9078
:102F20008F907F906F9008950F931F93CF93C42F2E
:102F300020E030E040EA51E40E947F390E942E37C1
:102F40000E94B5378B0101151105D9F08091AF05AD
:102F5000811117C0C11103C00E941D1F06C00E942D
:102F6000221E8091B10581FD0CC02FEF80E792E019
:102F7000215080409040E1F700C00000015011094D
:102F8000E2CFCF911F910F910895009741F0EFE9A3
:102F9000FFE03197F1F700C000000197F6CF0895E8
:102FA0008F929F92AF92BF92CF92DF92EF92FF9259
:102FB00069017A019B01AC010E947F394B015C01E0
:102FC000A7019601C701B6010E947F399B01AC01A0
:102FD000C501B4010E946836FF90EF90DF90CF905A
:102FE000BF90AF909F908F900C940C3A4F925F924D
:102FF0006F927F928F929F92AF92BF92CF92DF9209
:10300000EF92FF920F931F93CF93DF9310912101C3
:10301000111101C012E1115000911F01101709F4A4
:10302000EFC089E2189FE0011124CD5DDE4F8D884D
:103030009E88AF88B88C69A17AA18BA19CA19B01C5
:10304000AC010E9468362DA13EA14FA158A50E9457
:103050007F396B017C019B01AC01B401C5010E9469
:10306000413787FF02C064017501A601B701498B92
:103070005A8B6B8B7C8B111101C012E177247A94EF
:10308000710E701619F029E2622E27C0809122017C
:10309000081351C00E94652D4EC0679C8001112409
:1030A0000D5D1E4F711002C092E1792E7A948091CD
:1030B0002201781202C00E94652DF801C588D688C9
:1030C000E788F08CA70196016189728983899489C8
:1030D0000E944137811106C0E80180911F017812DA
:1030E000DCCF29C0F80161A172A183A194A19B0149
:1030F000AC010E946836F80125A136A147A150A570
:103100000E947F3929893A894B895C890E946836F7
:103110004B015C01A70196010E944137F80187FF2E
:1031200005C0818A928AA38AB48AD6CFC18AD28AFC
:10313000E38AF48AD1CF60901F01F9E26F9E80018B
:1031400011240D5D1E4F77247394760C82E1781262
:1031500001C0712C5090210189E2482E751409F4A8
:103160004DC0479CE0011124CD5DDE4FF801818800
:103170009288A388B488C988DA88EB88FC88A7017C
:103180009601C501B4010E94413787FF23C0F801B1
:1031900061A172A183A194A19B01AC010E94683638
:1031A000F80125A136A147A150A50E947F399B01B6
:1031B000AC01C501B4010E9468364B015C01A70156
:1031C00096010E94413787FF05C0898A9A8AAB8A97
:1031D000BC8A672C2D893E894F89588D69897A89E7
:1031E0008B899C890E944137811101C0672C73949F
:1031F000F2E17F1201C0712C8E01B0CF60921F01ED
:10320000DF91CF911F910F91FF90EF90DF90CF90C2
:10321000BF90AF909F908F907F906F905F904F90F6
:1032200008958CE1E3E0F1E0DF011D928A95E9F772
:10323000109222011092210181E0809320011092CE
:103240001F0108959091220180912101891769F051
:1032500081E0890F823109F480E020911F019213EF
:1032600002C080931F018093220108958091210163
:1032700029E2829FC00111248D5D9E4F08958091A7
:10328000220190912101981739F029E2829FC00113
:1032900011248D5D9E4F089580E090E00895E091A7
:1032A0002201EF5FE23109F4E0E080912101E817AB
:1032B00061F089E2E89FF0011124ED5DFE4F618924
:1032C0007289838994890C940C3A60E070E0CB0198
:1032D000089581E02091220190912001291380E03E
:1032E00008952F923F924F925F926F927F928F92AA
:1032F0009F92AF92BF92CF92DF92EF92FF920F9385
:103300001F93CF93DF93CDB7DEB7E9970FB6F8944D
:10331000DEBF0FBECDBF142F5FA368A779A7922E83
:1033200008AB2091210139E2239F10011124F10102
:10333000ED5DFE4F1F01158616861786108A15A2B1
:1033400016A217A210A6108249E956E766E97EE7A1
:1033500041A352A363A374A32CE0002319F0E3EB71
:10336000F5E002C0E3E0F1E0DE011D9601900D9270
:103370002A95E1F76C014EE8E42E46E0F42E9E011A
:10338000275E3F4F3FA72EA7CE010D969DA78CA786
:103390005101FE013196FBA7EAA700E0F601619119
:1033A0007191819191916F01F70120813181428169
:1033B00053810E947F390E944F39EEA5FFA561938A
:1033C000719381939193FFA7EEA7ECA5FDA5419082
:1033D000519061907190FDA7ECA764197509860959
:1033E00097092B013C0197FF07C044245524320163
:1033F000461A570A680A790AF501418252826382A5
:103400007482F10125853685478550894216530619
:103410006406750610F429013A01F10145865686C5
:103420006786708A0E94E337F701208131814281EB
:1034300053810E9448372B013C01EAA5FBA561930B
:10344000719381939193FBA7EAA720E030E0A90153
:103450000E94413787FF08C0F1018080802F0E94C1
:1034600089298829F1018083A3019201C301B20156
:103470000E947F39F10125A136A147A150A50E94E4
:103480006836F10165A376A387A390A70F5FF4E0E8
:10349000EF0EF11C24E0A20EB11C033009F07ECF28
:1034A0000E940C3A6B017C01F10165A376A387A30E
:1034B00090A785859685A785B089892B8A2B8B2B2C
:1034C00009F4F2C120E030E0A901612F7FA188A5B5
:1034D00099A50E94413787FD21C0992061F0A7017D
:1034E0009601612F7FA188A599A50E947F39162F8B
:1034F0007FA388A799A720E030E040E85FE3612F31
:103500007FA188A599A50E94413787FF0EC010E0D2
:103510001FA280E888A79FE399A707C019E9F6E7EB
:10352000FFA326E928A73EE739A7A701960160E097
:1035300070E080E89FE30E9448376EAB7FAB88AFB6
:1035400099AFEFE0F1E0FFA7EEA72AE936E03DA74B
:103550002CA7CE010D969EA38DA3FE013196FBA74D
:10356000EAA7C12CD12C7601EAA5FBA58080918029
:10357000A280B38020E030E0A901C501B4010E941F
:103580004137882309F481C02EA93FA948AD59AD20
:10359000C501B4010E947F394B015C01EAA5FBA57E
:1035A00060837183828393839B01AC0160E070E050
:1035B00080E89FE30E9448372B013C01E89477F8AC
:1035C000ECA5FDA52081318142815381C301B20167
:1035D0000E947F3969AB7AAB8BAB9CAB9B01AC0192
:1035E000612F7FA188A599A50E94413787FF07C059
:1035F00019ABFFA1FAAB28A52BAB39A53CABF10168
:10360000F1A1FFA3F101F2A1F8A7F101F3A1F9A73C
:10361000F101F4A1FDABECA5FDA52485358546851A
:103620005785C301B2010E947F393B018C019B0188
:10363000AC016FA178A589A59DA90E94413787FF9C
:1036400004C06FA078A409A51DA9C301D801F10188
:1036500081A392A3A3A3B4A3EEA5FFA520813181EA
:1036600042815381C501B4010E947F399B01AC01A5
:10367000C701B6010E9467366B017C0119A9FAA93E
:10368000FFA32BA928A73CA939A78AA59BA5049627
:103690009BA78AA7EEA5FFA53496FFA7EEA72CA5AA
:1036A0003DA52C5F3F4F3DA72CA7EDA1FEA18E1796
:1036B0009F0709F059CF909121018091220198171D
:1036C00019F0F8A9FF2331F0F101118A128A138A47
:1036D000148A0BC024EA30E74DE75FE3C701B60167
:1036E0000E944439181634F4F101118E128E138E93
:1036F000148E5FC024EA30E74DE75FEBC701B601E7
:103700000E944439181644F034EAC32E30E7D32E11
:103710003DE7E32E3FEBF32EA701960160E070E05A
:1037200080E89FE30E94673620E030E040E05FE3FE
:103730000E947F390E940C3A6B017C012091C306E4
:103740003091C4064091C5065091C606F10161A1B1
:1037500072A183A194A10E947F39A70196010E94C2
:103760007F394B015C01A701960160E070E080E8C1
:103770009FE30E9467369B01AC01C501B4010E9422
:103780004837D62EE72EF82E092F20E030E0A90189
:103790000E94413787FF04C0D12CE12CF12C00E0BE
:1037A0004D2D5E2D6F2D702FF101418F528F638F44
:1037B000748F212F3FA148A559A5612F7FA188A50E
:1037C00099A50E947F39162F072FF82EE92E862FF4
:1037D000902FAF2DBE2DF101858F968FA78FB0A3AF
:1037E000A18CB28CC38CD48C60901B0170901C0196
:1037F00080901D0190901E019301A401612F702FF4
:103800008F2D9E2D0E94413787FD0BC09301A4018F
:10381000B501C6010E94413787FD11C05301640103
:103820000EC0212F302F4F2D5E2DB501C6010E94F5
:10383000413787FD04C0A12EB02ECF2CDE2CC50150
:10384000D601F101858B968BA78BB08FF8A9F1116A
:103850002DC08CE0FE013196AFE0B1E001900D92F9
:103860008A95E1F7812F902FAF2DBE2D80931B01FC
:1038700090931C01A0931D01B0931E018CE0FE01EA
:103880007996A3E0B1E001900D928A95E1F78091DD
:103890002001809321018F5F823109F480E08093C1
:1038A00020010E94F61702C080E001C081E0E99685
:1038B0000FB6F894DEBF0FBECDBFDF91CF911F9141
:1038C0000F91FF90EF90DF90CF90BF90AF909F90BF
:1038D0008F907F906F905F904F903F902F900895C2
:1038E0008091B3059091B405A091B505B091B6054E
:1038F0008093030190930401A0930501B093060106
:103900008091B7059091B805A091B905B091BA051D
:103910008093070190930801A0930901B0930A01D5
:103920008091BB059091BC05A091BD05B091BE05ED
:1039300080930B0190930C01A0930D01B0930E01A5
:1039400008958091210190912201891708F48E5EDB
:10395000891B08950E94652D8091220180931F018B
:103960000C94F617CF93DF93EC018991882319F01B
:103970000E94F125FACFDF91CF910895CF93DF9385
:10398000FC018491EF012196882321F00E94F1250A
:10399000FE01F7CFDF91CF910895EF92FF920F9341
:1039A0001F93CF93DF931F92CDB7DEB7262FEDB6CF
:1039B000FEB66DB77EB7641B71090FB6F8947EBF73
:1039C0000FBE6DBF0DB71EB70F5F1F4F302FF80131
:1039D0009E2F931B941728F4622F0E946C3A9193A8
:1039E000F7CF442361F0F801E40FF11D3197808196
:1039F000805D49830E94F12549814150F2CF0FB685
:103A0000F894FEBE0FBEEDBE0F90DF91CF911F91D7
:103A10000F91FF90EF90089548E062E00C94CD1C68
:103A20008A3020F0843620F442E003C041E001C037
:103A300043E06AE00C94CD1C8F929F92AF92BF92AC
:103A4000CF92DF92EF92FF920F931F93CF93DF936A
:103A5000CDB7DEB72A970FB6F894DEBF0FBECDBF45
:103A60006B017C01142F20E030E0A9010E94413756
:103A700087FF07C08DE20E94F125F7FAF094F7F86E
:103A8000F094012F023060F020E030E048EC52E486
:103A9000C701B6010E947F396B017C010250F2CF51
:103AA00010FF0AC020E030E040E251E4C701B60157
:103AB0000E947F396B017C0120E030E040E05FE351
:103AC000C701B6010E9468360E94B037E1E0F0E01D
:103AD000EC0FFD1FE10FF11D2EE22083D12C5AE0E7
:103AE000852E912CA12CB12C6115710581059105B4
:103AF000A9F0D11201C0D394EE24E394F12CEC0E82
:103B0000FD1EED0CF11CA50194010E94783A605D48
:103B1000F7016083B901CA01D394E6CF80E3D116DF
:103B200048F4E1E0F0E0EC0FFD1FED0DF11D8083A6
:103B3000D394F5CF8D2DD1120BC0D394D3948F5F36
:103B4000E1E0F0E0EC0FFD1FE80FF11D80E3808362
:103B5000DD2041F0FE01ED0DF11D80810E94F12577
:103B6000DA94F6CF2A960FB6F894DEBF0FBECDBF1B
:103B7000DF91CF911F910F91FF90EF90DF90CF9049
:103B8000BF90AF909F908F9008952091D30620FF13
:103B900008C02BE832E441E25DE30E947F3944E053
:103BA00001C043E00C941C1D2091D30620FF08C0E7
:103BB0002BE832E441E25DE30E947F3941E001C03D
:103BC00040E00C941C1D43E00C941C1D40E00C9440
:103BD0001C1D1092CD059091D30697FD03C090E275
:103BE0009093CD05882331F08091CD0590E289270F
:103BF0008093CD0508953D98459A80E00C94E91D89
:103C000086B180729091CD05892708958091020137
:103C10008130A1F40E94001E882381F010920201DD
:103C20008CE0E3EBF5E0AFEBB5E001900D928A9507
:103C3000E1F780910101806480930101089582E0A1
:103C40000C944136CF93DF93C0910001CC2339F11E
:103C500081E08093B005C1FD0FC0C2FF02C082E0C9
:103C60000BC0C3FF02C083E007C0C4FF02C084E0F2
:103C700003C0C5FF03C085E00E943121C0FD04C020
:103C80008FEF0E945D360BC081E00E945B2180E1D6
:103C90000E944A368091010184FFFCCFF1CFC09190
:103CA0000101CC2309F4BEC0C4FF04C081E08093AD
:103CB000AF05C0C0C0FF05C00E94AE2481E00E94D5
:103CC0004A36DC2FD87609F457C08091B005882396
:103CD00059F0982F9C7709F44CC0883029F40E9441
:103CE000652D84E08093B2058091B005811106C0F6
:103CF00091E09093B10592E09093B205C6FF0AC09F
:103D0000883019F480E48093B0058091B105806417
:103D10008093B105C3FF07C08091B005803219F0D0
:103D200080E18093B005C5FF24C086E00E945B213E
:103D30008091B10588728832A1F48091B20583FF29
:103D40000AC00E94652D8CE08093B2058091B10578
:103D50008E7F8093B1058091B105837E82608093D0
:103D6000B1058091B10580628093B10580E28093B6
:103D7000B00588E60E944A36C1FF38C0D11133C071
:103D80008091B005882331F0807569F18091B1058B
:103D900080FF29C08091B105982F9472943239F434
:103DA00084FD02C0886001C08F7D8093B105809141
:103DB000B10585FD18C01092B2050E943F19892BEC
:103DC00071F08091B10586FD0AC01092B10588E0BE
:103DD0008093B0050E94262E0E946A2A04C0109289
:103DE000B1051092B00582E00E944A36C2FF1AC0A7
:103DF0008091B005807379F00E94AA1C9091B20561
:103E000092FF05C08091B10581608093B105937FD9
:103E10009093B20504C01092B1051092B00584E0F1
:103E20000E944A368091B0058C7721F0DF91CF91C6
:103E30000C94262EDF91CF9108958F929F92AF928E
:103E4000BF92CF92DF92EF92FF920F931F93CF9387
:103E5000DF93CDB7DEB768970FB6F894DEBF0FBE1D
:103E6000CDBF0E94221E8091B105882309F406C1AE
:103E7000C12CD12C90EAE92E90E4F92E10E10CE04F
:103E80008091B105882309F4F9C09091AF05911193
:103E9000F5C0982F9172913209F0EDC082FD7DC07E
:103EA00063EB75E0CE0101960E9427368091B10543
:103EB00081FD21C0FE013196DE011D96802F01900B
:103EC0000D928A95E1F72D893E894F89588DC7015A
:103ED000B6010E9468366B017C0120E030E040EAC8
:103EE00050EC0E94413787FD06C0C12CD12C80EADE
:103EF000E82E80ECF82E8091D30684FF43C089849D
:103F00009A84AB84BC8420E030E040EA50ECC501E8
:103F1000B4010E94413787FF35C0A7019601C50152
:103F2000B4010E94413787FF0CC0C986DA86EB8650
:103F3000FC8640E050E06AE773E4CE0101960E94FF
:103F400098160E949D290E945A0420E030E040EA21
:103F500050EC69857A858B859C850E94413787FF67
:103F600015C080E090E0A0EAB0EC89879A87AB8723
:103F7000BC8740E050E060E87FEBCE0101960E94F4
:103F8000981604C00E949D290E945A048091B10590
:103F90008D7F84608093B1056EC08091B0058032C2
:103FA00031F40E946334811102C01093B0058091F6
:103FB000B10583FF60C08091D30684FF18C020E064
:103FC00030E040EA50EC69857A858B859C850E94BB
:103FD0004137181664F0C986DA86EB86FC8640E025
:103FE00050E060E87FEBCE0101960E949816809128
:103FF00040058823A9F09091B10591FD11C0409131
:1040000041055091420560914305709144050E941D
:10401000AD2941E060E070E080E89FE30E949417E2
:1040200080913F05882369F09091B10591FD09C009
:104030000E94610441E060E070E080E89FE30E943C
:1040400094178091D30684FF0CC08091B10581FD47
:1040500008C040E050E06AE773E4CE010D960E948C
:1040600098168091B10581FD06C080618093B105ED
:1040700082E00E9441360E94221E02CF68960FB64F
:10408000F894DEBF0FBECDBFDF91CF911F910F918E
:10409000FF90EF90DF90CF90BF90AF909F908F9068
:1040A0000895CF93DF930E948A218091B0058130DB
:1040B00021F482E00E945B2130C01092B0050E9482
:1040C0006334882339F0809101018062809301017B
:1040D0000E941D1F85E094E00E9467341EC08D3051
:1040E00061F0CC2399F1893209F4CD7F0E94372603
:1040F0008F3F09F448C08A3091F70E941D1F8091BC
:10410000AF05811149C0ED2FF0E0EB5FFB4F10824E
:10411000C0FF06C08BE00E94E020D0E0C0E0E6CF08
:10412000809105048823B9F3843229F485E094E072
:104130000E948634F0CF8091B005813011F489E07F
:10414000EACF85E094E00E944B05E5CF813270F222
:104150008F3261F2883289F08B3389F0DF3488F452
:104160002D2F30E0DF5F9FE9980FF901EB5FFB4FE8
:104170009A3108F480528083B9CFC2E0B7CFC4E04F
:10418000B5CFC1E0B3CF0E941F1E0E941D1F8091BA
:10419000AF05882309F4AACFDF91CF9108950E943B
:1041A0001F1E0E941D1F8091AF05811108C00E9433
:1041B0003F19892BB1F78091B005883091F30895AC
:1041C000CF93C82F811103C087E898E047C08FE7DD
:1041D00098E00E94BE1C4C2F50E0FA013197E63166
:1041E000F10598F5E75AFF4F0C949A3A87E698E064
:1041F00002C085E598E00E94BE1C2EC083E498E0D2
:10420000FACF89E398E0F7CF88E298E0F4CF89E12C
:1042100098E0F1CF88EF97E0EECF8FEE97E0EBCF0D
:1042200084EE97E0E8CF81ED97E0E5CF83EC97E06F
:10423000E2CF88EB97E0DFCF82EA97E0DCCF8EE831
:1042400097E0D9CF8AE797E0D6CF88E697E00E943B
:10425000BE1C8C2F0E94101D85E697E0CF910C9418
:10426000BE1CCF93C82F8DE597E00E94BE1CC330C3
:1042700091F03CF4C13061F0C230A1F487E497E0E2
:104280000FC0C43059F0C53069F48DE197E008C023
:1042900082E597E005C084E397E002C089E297E0F9
:1042A0000E94BE1C8AE197E00E94BE1C84EF91E050
:1042B000CF910C94C517CF93C82F88E197E00E9447
:1042C000BE1C8C2F90E0FC013197E830F105E8F43A
:1042D000E159FF4F0C949A3A86E097E014C082EFC0
:1042E00096E011C080EE96E00EC088ED96E00BC01F
:1042F0008FEC96E008C084EC96E005C08CEB96E06D
:1043000002C089EA96E00E94BE1C85EA96E0CF9141
:104310000C94BE1C88E896E00C94BE1C84E495E0E6
:104320000C94BE1CFF920F931F93CF93DF9380E4F6
:1043300095E00E94BE1C8091BE060E94101D87E27F
:1043400095E00E94BE1C8091C1060E94101D89E06C
:1043500095E00E94BE1C8091BF060E94101D80EF58
:1043600094E00E94BE1C8091BF060E940C1D89EE45
:1043700094E00E94BE1C8091C0060E94101D81ED39
:1043800094E00E94BE1C8091C0060E940C1D8AEC25
:1043900094E00E94BE1C8091D30682FB882780F99E
:1043A0000E94101D89EA94E00E94BE1C8091D306F1
:1043B00086FB882780F90E94101D89E894E00E94FE
:1043C000BE1C8091D306881F8827881F0E94101D5D
:1043D00089E694E00E94BE1C8091C2060E94101DD6
:1043E00083E594E00E94BE1C8091C2060E940C1DD1
:1043F0008BE494E00E94BE1C6091C3067091C406D9
:104400008091C5069091C6060E94E31D8BE294E060
:104410000E94BE1C6091C7067091C8068091C906B3
:104420009091CA060E94E31D80E194E00E94BE1CA8
:104430008091D30681700E94101D83EF93E00E944B
:10444000BE1C8091D30685FB882780F90E94101D31
:1044500088ED93E00E94BE1C8091D30683FB8827E1
:1044600080F90E94101D8DEB93E00E94BE1C80918C
:10447000D306829581700E94101D81EA93E00E940C
:10448000BE1C8091D4060E94101D87E893E00E9414
:10449000BE1C8091D4060E940C1D8FE793E00E9401
:1044A000BE1C6091D5067091D6068091D70690917A
:1044B000D8060E94E31D82E693E00E94BE1C609134
:1044C000D9067091DA068091DB069091DC060E9495
:1044D000E31D85E493E00E94BE1C8091DD060E94EE
:1044E000101D86E293E00E94BE1C6091DF06709171
:1044F000E0068091E1069091E2060E94E31D89E0CA
:1045000093E00E94BE1C6091CB067091CC06809116
:10451000CD069091CE060E94E61D88EF92E00E94A3
:10452000BE1C6091CF067091D0068091D10690910B
:10453000D2060E94E61D8BEE92E00E94BE1C84E62D
:10454000F82E10E0CEE8D6E000E089EE92E00E947E
:10455000BE1C802F8F0D0E94101D87EE92E00E94DE
:10456000BE1C123071F01330B9F0113029F068819F
:1045700079818A819B8117C06C857D858E859F8519
:1045800012C020E030E041E655E4688D798D8A8DD7
:104590009B8D0E94483707C08CA19DA1AEA1BFA1F1
:1045A000BC01CD0190580E94E31D84EE92E00E9470
:1045B000BE1C013029F0023031F082EE92E005C0DD
:1045C00080EE92E002C08EED92E00E94BE1C12309E
:1045D00051F0133059F0113019F084ED92E008C019
:1045E00082EC92E005C081EB92E002C081EA92E0A9
:1045F0000E94BE1C8DE992E00E94BE1C0F5F2496B3
:10460000033009F0A2CF8AE0F80E1F5F8CE8F812A1
:1046100099CFDF91CF911F910F91FF900895CF9384
:1046200087E992E00E94BE1CC0E06C2F8FEB95E002
:104630000E940D360E94C51DC23021F085E992E02E
:104640000E94BE1CCF5FC33081F783E992E00E94D5
:10465000BE1C8091CB050E94101D8FE892E0CF9187
:104660000C94BE1CEF92FF920F931F93CF93DF9396
:10467000CDB7DEB72C970FB6F894DEBF0FBECDBF17
:10468000F12CBE016F5F7F4F8F2D0E942528811175
:1046900004C087E00E94E02069C08CE892E00E949C
:1046A000BE1C86E0F81631F0E7E0FE1208C086E88E
:1046B00092E002C089E892E00E94BE1C04C086E33A
:1046C0008F0D0E94101D84E892E00E94BE1C8E0196
:1046D0000F5F1F4FE12CF8016191719181919191D0
:1046E0008F010E94C51DF2E0EF1619F082E892E0FA
:1046F00002C08EE792E00E94BE1CE39483E0E812C1
:10470000EACFF394E8E0FE12BCCF88E792E00E9483
:10471000BE1C06E615E0F12CF801619171918191C2
:1047200091918F010E94C51DF2E0FF1619F086E7F6
:1047300092E002C082E792E00E94BE1CF39483E004
:10474000F812EACF8CE692E00E94BE1C60917205DE
:104750007091730580917405909175050E94C51D37
:1047600088E692E00E94BE1C0E940F232C960FB692
:10477000F894DEBF0FBECDBFDF91CF911F910F9197
:10478000FF90EF90089586E692E00E94BE1C809113
:104790003705823091F038F4882361F08130A9F434
:1047A00080E692E00CC0833069F0883071F486E5D1
:1047B00092E005C083E692E002C08DE592E00E949F
:1047C000BE1C0CC08AE592E0FACF81E592E00E941F
:1047D000BE1C8091370582500E94101D8EE492E02D
:1047E0000E94BE1C80913D058A5C0E94101D809134
:1047F0003B05813049F028F0823051F48FE392E09C
:1048000005C089E492E002C084E492E00E94BE1CEC
:1048100080913905811103C08AE392E002C085E3EB
:1048200092E00E94BE1C80913A05811103C080E392
:1048300092E002C08BE292E00E94BE1C809138059B
:10484000813019F486E292E002C081E292E00E9497
:10485000BE1C80913E05813049F028F0823051F431
:1048600085E192E005C08DE192E002C089E192E02D
:104870000E94BE1C80914005813031F040F08230B2
:1048800051F48DE092E005C081E192E002C089E040
:1048900092E00E94BE1C80913F05813049F028F0D3
:1048A000823051F481E092E005C085E092E002C0E0
:1048B0008DEF91E00E94BE1C8AEF91E00E94BE1C29
:1048C000809149050E94101D87EF91E00E94BE1C57
:1048D0006091450570914605809147059091480586
:1048E0000E94D41D84EF91E00E94BE1C609141059E
:1048F0007091420580914305909144050E94E61D08
:1049000080EF91E00C94BE1C1F93CF93DF93182F80
:10491000EB018DEE91E00E94BE1C812F0E94101DC4
:104920008BEE91E00E94BE1CCE010E94B21C88EE6C
:1049300091E0DF91CF911F910C94BE1CCF93DF9338
:10494000EC0188ED91E00E94BE1CCE010E94B21CD9
:1049500084ED91E0DF91CF910C94BE1CBF92CF9279
:10496000DF92EF92FF920F931F93CF93DF93CDB718
:10497000DEB768970FB6F894DEBF0FBECDBF8CE0F0
:10498000E3EBF5E0DE011D9601900D928A95E1F7CB
:104990008091B0058430E9F040F48130E9F080F096
:1049A000823009F58FEA91E01CC0803179F018F46B
:1049B000883049F018C0803291F0803421F013C063
:1049C0008EEC91E00EC089EC91E00BC083EC91E09D
:1049D00008C08DEB91E005C086EB91E002C089EA4A
:1049E00091E00E94BE1C8091C206837039F0BE0126
:1049F000635F7F4FCE0101960E9427368091C206E9
:104A000080FD05C08091C20681FF6DC01FC082EA93
:104A100091E00E94BE1C69817A818B819C810E94F9
:104A2000C51D80EA91E00E94BE1C6D817E818F8150
:104A300098850E94C51D80EA91E00E94BE1C698590
:104A40007A858B859C850E94C51DDCCF89E991E024
:104A50000E94BE1C9AE5E92E95E0F92E8E010F5FAB
:104A60001F4FB12C6801F701619171918191919172
:104A70007F0120853185428553850E9468369B01E0
:104A8000AC01F80160817181828193810E94673657
:104A9000F8016083718382839383F2E0BF120FC0B9
:104AA0002091720530917305409174055091750500
:104AB0000E946736F80160837183828393830C5F61
:104AC0001F4FF60160817181828193810E94C51D13
:104AD000F2E0BF1621F087E991E00E94BE1CB3947A
:104AE00023E0B212BFCF8091C20682FF08C081E9E5
:104AF00091E00E94BE1C0E94A11C0E94101D80918A
:104B0000C20683FF08C08CE891E00E94BE1C0E9490
:104B1000D2250E94101D8091C206807779F186E827
:104B200091E00E94BE1C8091C20684FF06C00E94D4
:104B3000C70F43E062E00E94CD1C84E891E00E9430
:104B4000BE1C8091C20685FF0BC00E94001E8823F8
:104B500019F082E891E002C080E891E00E94BE1C5A
:104B60008EE791E00E94BE1C8091C20686FF06C0BF
:104B70000E94193444E062E00E94CD1C8AE791E073
:104B80000E94BE1C68960FB6F894DEBF0FBECDBF64
:104B9000DF91CF911F910F91FF90EF90DF90CF9019
:104BA000BF9008959091570480915804891708F494
:104BB0008058891B0895E0ECF0E08081826080835A
:104BC0001092C50080E18093C400E1ECF0E08081A8
:104BD0008061808380818860808380818068808319
:104BE0000895E091560491E09E0F903409F490E00E
:104BF00020915504921305C02091010124FFF8CFA4
:104C00000895F0E0E253FA4F808390935604809128
:104C1000C10080628093C10008951F920F920FB669
:104C20000F9211248F939F93EF93FF9380915504DC
:104C3000E82FF0E0E253FA4F90819093C6008F5F27
:104C4000803409F480E080935504909156048913D0
:104C500005C08091C1008F7D8093C100FF91EF91CD
:104C60009F918F910F900FBE0F901F90189590916C
:104C7000570480915804891761F0E92FF0E0E25F52
:104C8000F94F80819F5F903809F490E0909357042A
:104C900008958FEF08951F920F920FB60F9211246F
:104CA0002F933F934F935F936F937F938F939F9334
:104CB000AF93BF93EF93FF938091C6008F3369F05A
:104CC00030F4883181F0813289F488E009C0803481
:104CD00031F08E3759F482E003C081E001C080E2F8
:104CE0000E94413614C00E94C41611C0E0915804BD
:104CF00091E09E0F903809F490E0209157049217AC
:104D000031F0F0E0E25FF94F808390935804FF9117
:104D1000EF91BF91AF919F918F917F916F915F9133
:104D20004F913F912F910F900FBE0F901F901895AC
:104D30008091580480935704089521E5829FC00113
:104D4000112440E550E09D5F0C94B00440E550E034
:104D5000BC018EEA93E00C94B0042DE0829FC00168
:104D600011244CE050E09E5F0C94B0046AE080E0B7
:104D700090E00E948E0445E550E06EE876E081E028
:104D800090E00C94B004EF92FF920F931F93CF9397
:104D9000DF93CDB7DEB72C970FB6F894DEBF0FBE0A
:104DA000CDBF182F80FFEDC08AE08093BE068FEF45
:104DB0008093C1061092BF0623E02093C006209383
:104DC000C2068AE097EDA3EABCE38093C306909302
:104DD000C406A093C506B093C6068FE692E1A3E091
:104DE000BBE38093C7069093C806A093C906B0930F
:104DF000CA0680E090E8ABE3B6E48093CB069093DC
:104E0000CC06A093CD06B093CE061092CF0610929A
:104E1000D0061092D1061092D2062093D40680E0DC
:104E200090E0A8ECB1E48093D5069093D606A093C9
:104E3000D706B093D80680E090E8ABE3B4E4809363
:104E4000D9069093DA06A093DB06B093DC068AEFCE
:104E500090E09093DE068093DD0680E090E0A0E88D
:104E6000BFE38093DF069093E006A093E106B09342
:104E7000E2061092D30640E050E060E272E4409314
:104E80008E0650938F066093900670939106409320
:104E9000920650939306609394067093950685E569
:104EA00092EFACE3B3E48093960690939706A093B9
:104EB0009806B093990640E050E06AEF75E440939D
:104EC0009A0650939B0660939C0670939D064093B0
:104ED0009E0650939F066093A0067093A10680E003
:104EE00090E0AAEFB3E48093A2069093A306A09368
:104EF000A406B093A50640E05AEB6BED79E440932D
:104F0000A6065093A7066093A8067093A90640933F
:104F1000AA065093AB066093AC067093AD0680E092
:104F200098ECAFE2B8E48093AE069093AF06A093FE
:104F3000B006B093B10680E090E0A9E3B4EC8093B2
:104F4000B2069093B306A093B406B093B50680E082
:104F500090E8A5E4B4EC8093B6069093B706A093CE
:104F6000B806B093B90680E090E0A8ECB2EC80936C
:104F7000BA069093BB06A093BC06B093BD060E94F0
:104F8000B62611FF10C0CE0101967C018CE0F7011E
:104F900011928A95E9F700E0B701802F0E94AD26B3
:104FA0000F5F0830C9F712FF0AC060E080E093E0AD
:104FB0000E948E0460E081E593E00E948E0413FF5E
:104FC00005C060E08EEA93E00E948E042C960FB636
:104FD000F894DEBF0FBECDBFDF91CF911F910F912F
:104FE000FF90EF9008951F93CF93DF93182FEB015D
:104FF00081E5189FB00111247D5F40E550E0CE01AE
:105000000E94EE04892B39F41882BE01812F0E9480
:105010009D2680E001C081E0DF91CF911F9108952E
:10502000CF93DF93EC0140E550E06EEA73E00E941D
:10503000EE04892B31F41882CE010E94A62680E06E
:1050400001C081E0DF91CF9108951F93CF93DF934B
:10505000182FEB018DE0189FB00111247E5F4CE00A
:1050600050E0CE010E94EE04892B59F48CE0FE0141
:1050700011928A95E9F7BE01812F0E94AD2680E04A
:1050800001C081E0DF91CF911F91089580E090E011
:105090000E9486048A3059F445E550E061E070E0F2
:1050A0008EE896E00E94EE0421E0892B09F420E0CE
:1050B000822F0895CF92DF92EF92FF92CF93DF93EA
:1050C000C82F6A017B0120E030E0A901C701B601C9
:1050D0000E94413787FDF8C0C43608F445C02CE96A
:1050E0002C0F80E02330B8F530E0823079F0F90100
:1050F000EE0FFF1FEE0FFF1F833011F1813019F00B
:10510000E257F94F23C0E656F94F20C0E901CC0F12
:10511000DD1FCC0FDD1FCA55D94F20E030E040E73E
:1051200052E4C701B6010E947F3920E030E040E739
:1051300052E40E947F39688379838A839B83C0C04D
:10514000EE54F94FF7FAF094F7F8F094C082D18258
:10515000E282F382B5C08F5F2A3008F4B7C0843092
:1051600009F4B4C02A50BECFC701B6010E944D3A1F
:105170000E94B5378C2F90E08032910508F0A6C0D0
:10518000FC01E958FF4F0C949A3A633008F4A0C030
:105190006093BE0695C06093C10692C06093BF063F
:1051A00002C06093C0060E94DB2C8AC08091D306A7
:1051B000662311F0846007C08B7F05C08091D30601
:1051C000662321F080648093D3067AC08F7BFBCF67
:1051D0008091D306662311F08068F5CF8F77F3CFE7
:1051E0006093C2066DC0C092C306D092C406E0921E
:1051F000C506F092C60664C0C092C706D092C80623
:10520000E092C906F092CA065BC08091D30666237D
:1052100011F08160D8CF8E7FD6CF8091D3066623E0
:1052200021F084FF57C08062CECF8F7DCCCF80919C
:10523000D306662311F0886001C0877F8093D30670
:105240000E94B00F3DC08091D306662311F08061AB
:10525000BACF8F7CB8CF6093D40632C0C092D50647
:10526000D092D606E092D706F092D80629C0C09216
:10527000D906D092DA06E092DB06F092DC0620C076
:1052800070E07093DE066093DD061AC0C092DF0600
:10529000D092E006E092E106F092E20611C0C092E0
:1052A000CB06D092CC06E092CD06F092CE0608C096
:1052B000C092CF06D092D006E092D106F092D206EC
:1052C0000E94B62680E007C084E005C083E003C0EA
:1052D00086E001C08AE0DF91CF91FF90EF90DF90F0
:1052E000CF9008950E944628811108C087E00E944F
:1052F000E0208FEF0E94C3260C949221089588230A
:1053000021F0813021F488E0089584E0089580E15F
:105310000895882321F0813021F480E4089580E20B
:10532000089580E80895882321F0813021F484E0F5
:10533000089582E0089580E10895E0EBF0E0808137
:105340008F7780830895239A83E08093B00082E072
:105350008093B100259A0C949D298F929F92AF92D1
:10536000BF92CF92DF92EF92FF920F931F93CF9352
:10537000DF936A017B019091AF05911176C0811195
:105380000EC0DF91CF911F910F91FF90EF90DF90B2
:10539000CF90BF90AF909F908F900C949D298130BB
:1053A00011F42D9801C02D9AA090CB06B090CC0698
:1053B0000091CD061091CE068090CF069090D00639
:1053C000D091D106C091D20694014D2F5C2FB5012A
:1053D000C8010E94413718160CF03FC09501A80182
:1053E000B601C7010E944439181614F4650178010A
:1053F00094014D2F5C2FB601C7010E94413787FFF2
:1054000003C06401ED2EFC2E94014D2F5C2FB601DC
:10541000C7010E9467366B017C0194014D2F5C2F00
:10542000B501C8010E9467369B01AC0160E070E0E5
:105430008FE793E40E9448379B01AC01C701B60196
:105440000E947F3920E030E040E05FE30E94683650
:105450000E941E380E94B53701C06FEF6093B30001
:105460008091B00080688093B000DF91CF911F9150
:105470000F91FF90EF90DF90CF90BF90AF909F90F3
:105480008F900895CF93DF9300D000D01F92CDB7B7
:10549000DEB79091B0059230A9F04A835B836C83AC
:1054A0007D8389830E94CF204A815B816C817D81CD
:1054B00089810F900F900F900F900F90DF91CF91F7
:1054C0000C94AD290F900F900F900F900F90DF91DB
:1054D000CF9108958091D30682FF02C0289A01C01F
:1054E0002898809196048093AA04809197048093D1
:1054F000A9048091BE06880F845081958093A804EA
:1055000080916F00826080936F00089580916F009A
:105510008D7F80936F0080918100887F8160809370
:105520008100109295048091C1068F3F21F49091E3
:105530000001992349F09091B005943029F090E052
:105540000E94C51781E001C080E09091D30692FFD0
:1055500002C091E08927882311F0289A089528989D
:1055600008951F920F920FB60F9211242F933F931D
:105570004F935F936F937F938F939F93AF93BF935B
:10558000CF93DF93EF93FF93809195048111EAC14C
:105590009BB18091AA04807E9F71892B8BB98BB1BE
:1055A000837E9091A904892B8BB98091A80486BD34
:1055B00082E085BD81E08093950478948091BC045D
:1055C0009091BD04892B09F09FC080919A0490911D
:1055D0009904981709F492C0E0919A0486E0E89F34
:1055E000F0011124E254FB4FF093BD04E093BC049E
:1055F0008381948190938900809388008081918138
:105600009093B8048093B704A2818091B9048A175B
:1056100071F1A093B90481E1A89FD0011124AE518A
:10562000BB4FB093BB04A093BA041D968D919D917E
:105630000D90BC91A02DB695A795979587958093D1
:10564000A3049093A404A093A504B093A60480930C
:105650009F049093A004A093A104B093A20480930C
:105660009B0490939C04A0939D04B0939E04C091CE
:10567000BA04D091BB0480919604988189278093C5
:10568000AA04258189819A81AB81BC81022E04C044
:10569000B695A795979587950A94D2F78093AB0412
:1056A0009093AC04A093AD04B093AE048D819E8121
:1056B000AF81B885022E04C0B695A79597958795BA
:1056C0000A94D2F78093AF049093B004A093B104EE
:1056D000B093B20489859A85AB85BC8504C0B69524
:1056E000A795979587952A95D2F78093B3049093C1
:1056F000B404A093B504B093B60406C00E94862AF1
:1057000084E00E9441362EC10E94061E1092A90418
:105710008091AB049091AC04A091AD04B091AE0423
:1057200040919B0450919C0460919D0470919E0453
:10573000840F951FA61FB71F80939B0490939C0412
:10574000A0939D04B0939E04E091BA04F091BB0431
:105750004585568567857089481759076A077B070D
:1057600068F524E02093A9044585568567857089EE
:10577000841B950BA60BB70B80939B0490939C0402
:10578000A0939D04B0939E0420818091B3059091D5
:10579000B405A091B505B091B60525FF04C00197E9
:1057A000A109B10903C00196A11DB11D8093B305E4
:1057B0009093B405A093B505B093B6058091AF045E
:1057C0009091B004A091B104B091B20440919F04B3
:1057D0005091A0046091A1047091A204840F951FC0
:1057E000A61FB71F80939F049093A004A093A104C9
:1057F000B093A20445855685678570894817590777
:105800006A077B0778F52091A90428602093A904F2
:105810004585568567857089841B950BA60BB70B4C
:1058200080939F049093A004A093A104B093A2043A
:1058300020818091B7059091B805A091B905B091EC
:10584000BA0526FF04C00197A109B10903C001965A
:10585000A11DB11D8093B7059093B805A093B9051C
:10586000B093BA058091B3049091B404A091B504AB
:10587000B091B6044091A3045091A4046091A50492
:105880007091A604840F951FA61FB71F8093A304D1
:105890009093A404A093A504B093A60445855685CF
:1058A00067857089481759076A077B0778F5209143
:1058B000A90420612093A9044585568567857089D0
:1058C000841B950BA60BB70B8093A3049093A404A1
:1058D000A093A504B093A60420818091BB0590916C
:1058E000BC05A091BD05B091BE0527FF04C001977E
:1058F000A109B10903C00196A11DB11D8093BB058B
:105900009093BC05A093BD05B093BE058091B005F2
:10591000843039F48091CC059091A9048923809337
:10592000A9048091B7049091B80401979093B804AA
:105930008093B704892B69F41092BD041092BC04C3
:1059400080919A048F5F80939A04863011F41092AC
:105950009A04809197049091A90489278093A904BF
:1059600010929504FF91EF91DF91CF91BF91AF918C
:105970009F918F917F916F915F914F913F912F9167
:105980000F900FBE0F901F9018951F920F920FB699
:105990000F9211248F939F939BB1809197048C71E8
:1059A000937E892B8BB915BC9F918F910F900FBE61
:1059B0000F901F901895FF920F931F93CF93DF9333
:1059C0001092970410929604C0E0D0E00C2F1C2F88
:1059D0002091BF0630E08C2F0C2E02C03595279504
:1059E0000A94E2F720FF07C0F09097040E947F29F5
:1059F0008F29809397042091C00630E002C035952E
:105A000027951A95E2F720FF08C010919604802F81
:105A10000E948929812B809396042196C330D10559
:105A2000A9F6DF91CF911F910F91FF9008950E94E9
:105A3000862A88E3E9E5F4E0DF011D928A95E9F71B
:105A400083E2EBE9F4E0DF011D928A95E9F7109219
:105A500094041092930410929A041092990481E095
:105A600080939804109295040E94DB2C8BB1837E66
:105A700090919704892B8BB98BB18F71909196047B
:105A8000892B8BB908958AB18C618AB9209A8AB121
:105A9000806E8AB9E1E8F0E080818F7E808380812A
:105AA00088608083E0E8F0E080818C7F8083808163
:105AB0008F708083EEE6F0E08081887F808314BC65
:105AC00015BC8081816080830895CF93DF93C0915E
:105AD0009304D09194042097C9F080915A04816076
